{
  "contractName": "DAO",
  "abi": [
    {
      "inputs": [
        {
          "internalType": "uint256",
          "name": "contributionTime",
          "type": "uint256"
        },
        {
          "internalType": "uint256",
          "name": "_voteTime",
          "type": "uint256"
        },
        {
          "internalType": "uint256",
          "name": "_quorum",
          "type": "uint256"
        }
      ],
      "payable": false,
      "stateMutability": "nonpayable",
      "type": "constructor"
    },
    {
      "payable": true,
      "stateMutability": "payable",
      "type": "fallback"
    },
    {
      "constant": true,
      "inputs": [],
      "name": "admin",
      "outputs": [
        {
          "internalType": "address",
          "name": "",
          "type": "address"
        }
      ],
      "payable": false,
      "stateMutability": "view",
      "type": "function"
    },
    {
      "constant": true,
      "inputs": [],
      "name": "availableFunds",
      "outputs": [
        {
          "internalType": "uint256",
          "name": "",
          "type": "uint256"
        }
      ],
      "payable": false,
      "stateMutability": "view",
      "type": "function"
    },
    {
      "constant": true,
      "inputs": [],
      "name": "contributionEnd",
      "outputs": [
        {
          "internalType": "uint256",
          "name": "",
          "type": "uint256"
        }
      ],
      "payable": false,
      "stateMutability": "view",
      "type": "function"
    },
    {
      "constant": true,
      "inputs": [
        {
          "internalType": "address",
          "name": "",
          "type": "address"
        }
      ],
      "name": "investors",
      "outputs": [
        {
          "internalType": "bool",
          "name": "",
          "type": "bool"
        }
      ],
      "payable": false,
      "stateMutability": "view",
      "type": "function"
    },
    {
      "constant": true,
      "inputs": [],
      "name": "nextProposalId",
      "outputs": [
        {
          "internalType": "uint256",
          "name": "",
          "type": "uint256"
        }
      ],
      "payable": false,
      "stateMutability": "view",
      "type": "function"
    },
    {
      "constant": true,
      "inputs": [
        {
          "internalType": "uint256",
          "name": "",
          "type": "uint256"
        }
      ],
      "name": "proposals",
      "outputs": [
        {
          "internalType": "uint256",
          "name": "id",
          "type": "uint256"
        },
        {
          "internalType": "string",
          "name": "name",
          "type": "string"
        },
        {
          "internalType": "uint256",
          "name": "amount",
          "type": "uint256"
        },
        {
          "internalType": "address payable",
          "name": "recipient",
          "type": "address"
        },
        {
          "internalType": "uint256",
          "name": "votes",
          "type": "uint256"
        },
        {
          "internalType": "uint256",
          "name": "end",
          "type": "uint256"
        },
        {
          "internalType": "bool",
          "name": "executed",
          "type": "bool"
        }
      ],
      "payable": false,
      "stateMutability": "view",
      "type": "function"
    },
    {
      "constant": true,
      "inputs": [],
      "name": "quorum",
      "outputs": [
        {
          "internalType": "uint256",
          "name": "",
          "type": "uint256"
        }
      ],
      "payable": false,
      "stateMutability": "view",
      "type": "function"
    },
    {
      "constant": true,
      "inputs": [
        {
          "internalType": "address",
          "name": "",
          "type": "address"
        }
      ],
      "name": "shares",
      "outputs": [
        {
          "internalType": "uint256",
          "name": "",
          "type": "uint256"
        }
      ],
      "payable": false,
      "stateMutability": "view",
      "type": "function"
    },
    {
      "constant": true,
      "inputs": [],
      "name": "totalShares",
      "outputs": [
        {
          "internalType": "uint256",
          "name": "",
          "type": "uint256"
        }
      ],
      "payable": false,
      "stateMutability": "view",
      "type": "function"
    },
    {
      "constant": true,
      "inputs": [],
      "name": "voteTime",
      "outputs": [
        {
          "internalType": "uint256",
          "name": "",
          "type": "uint256"
        }
      ],
      "payable": false,
      "stateMutability": "view",
      "type": "function"
    },
    {
      "constant": true,
      "inputs": [
        {
          "internalType": "address",
          "name": "",
          "type": "address"
        },
        {
          "internalType": "uint256",
          "name": "",
          "type": "uint256"
        }
      ],
      "name": "votes",
      "outputs": [
        {
          "internalType": "bool",
          "name": "",
          "type": "bool"
        }
      ],
      "payable": false,
      "stateMutability": "view",
      "type": "function"
    },
    {
      "constant": true,
      "inputs": [
        {
          "internalType": "uint256",
          "name": "id",
          "type": "uint256"
        }
      ],
      "name": "getProposalId",
      "outputs": [
        {
          "internalType": "uint256",
          "name": "",
          "type": "uint256"
        }
      ],
      "payable": false,
      "stateMutability": "view",
      "type": "function"
    },
    {
      "constant": false,
      "inputs": [],
      "name": "contribute",
      "outputs": [],
      "payable": true,
      "stateMutability": "payable",
      "type": "function"
    },
    {
      "constant": false,
      "inputs": [
        {
          "internalType": "uint256",
          "name": "amount",
          "type": "uint256"
        }
      ],
      "name": "redeemShare",
      "outputs": [],
      "payable": false,
      "stateMutability": "nonpayable",
      "type": "function"
    },
    {
      "constant": false,
      "inputs": [
        {
          "internalType": "uint256",
          "name": "amount",
          "type": "uint256"
        },
        {
          "internalType": "address",
          "name": "to",
          "type": "address"
        }
      ],
      "name": "transferShare",
      "outputs": [],
      "payable": false,
      "stateMutability": "nonpayable",
      "type": "function"
    },
    {
      "constant": false,
      "inputs": [
        {
          "internalType": "string",
          "name": "name",
          "type": "string"
        },
        {
          "internalType": "uint256",
          "name": "amount",
          "type": "uint256"
        },
        {
          "internalType": "address payable",
          "name": "recipient",
          "type": "address"
        }
      ],
      "name": "createProposal",
      "outputs": [],
      "payable": false,
      "stateMutability": "nonpayable",
      "type": "function"
    },
    {
      "constant": false,
      "inputs": [
        {
          "internalType": "uint256",
          "name": "proposalId",
          "type": "uint256"
        }
      ],
      "name": "vote",
      "outputs": [],
      "payable": false,
      "stateMutability": "nonpayable",
      "type": "function"
    },
    {
      "constant": false,
      "inputs": [
        {
          "internalType": "uint256",
          "name": "proposalId",
          "type": "uint256"
        }
      ],
      "name": "executeProposal",
      "outputs": [],
      "payable": false,
      "stateMutability": "nonpayable",
      "type": "function"
    },
    {
      "constant": false,
      "inputs": [
        {
          "internalType": "uint256",
          "name": "amount",
          "type": "uint256"
        },
        {
          "internalType": "address payable",
          "name": "to",
          "type": "address"
        }
      ],
      "name": "withdrawEther",
      "outputs": [],
      "payable": false,
      "stateMutability": "nonpayable",
      "type": "function"
    }
  ],
  "bytecode": "0x608060405234801561001057600080fd5b50604051611a4f380380611a4f8339818101604052606081101561003357600080fd5b810190808051906020019092919080519060200190929190805190602001909291905050506000811180156100685750606481105b6100da576040517f08c379a00000000000000000000000000000000000000000000000000000000081526004018080602001828103825260208152602001807f51756f72756d206d757374206265206265747765656e203020616e642031303081525060200191505060405180910390fd5b824201600a81905550816003819055508060048190555033600560006101000a81548173ffffffffffffffffffffffffffffffffffffffff021916908373ffffffffffffffffffffffffffffffffffffffff16021790555050505061190b806101446000396000f3fe6080604052600436106101145760003560e01c80636f7bc9be116100a0578063ce56c45411610064578063ce56c454146105f2578063ce7c2ac21461064d578063d151b516146106b2578063d7bb99ba146106dd578063f851a440146106e757610114565b80636f7bc9be146104615780637c95ac27146104ca578063868643df146105195780639f2524ee14610554578063bcf93dd6146105c757610114565b80631703a018116100e75780631703a018146103055780632ab09d14146103305780633a98ef391461035b57806346fcff4c146103865780636ac1e01f146103b157610114565b80630121b93f14610126578063013cf08b14610161578063039383e61461026f5780630d61b519146102ca575b34600960008282540192505081905550005b34801561013257600080fd5b5061015f6004803603602081101561014957600080fd5b810190808035906020019092919050505061073e565b005b34801561016d57600080fd5b5061019a6004803603602081101561018457600080fd5b81019080803590602001909291905050506109ee565b60405180888152602001806020018781526020018673ffffffffffffffffffffffffffffffffffffffff1673ffffffffffffffffffffffffffffffffffffffff16815260200185815260200184815260200183151515158152602001828103825288818151815260200191508051906020019080838360005b8381101561022e578082015181840152602081019050610213565b50505050905090810190601f16801561025b5780820380516001836020036101000a031916815260200191505b509850505050505050505060405180910390f35b34801561027b57600080fd5b506102c86004803603604081101561029257600080fd5b8101908080359060200190929190803573ffffffffffffffffffffffffffffffffffffffff169060200190929190505050610af5565b005b3480156102d657600080fd5b50610303600480360360208110156102ed57600080fd5b8101908080359060200190929190505050610ca0565b005b34801561031157600080fd5b5061031a610f04565b6040518082815260200191505060405180910390f35b34801561033c57600080fd5b50610345610f0a565b6040518082815260200191505060405180910390f35b34801561036757600080fd5b50610370610f10565b6040518082815260200191505060405180910390f35b34801561039257600080fd5b5061039b610f16565b6040518082815260200191505060405180910390f35b3480156103bd57600080fd5b5061045f600480360360608110156103d457600080fd5b81019080803590602001906401000000008111156103f157600080fd5b82018360208201111561040357600080fd5b8035906020019184600183028401116401000000008311171561042557600080fd5b909192939192939080359060200190929190803573ffffffffffffffffffffffffffffffffffffffff169060200190929190505050610f1c565b005b34801561046d57600080fd5b506104b06004803603602081101561048457600080fd5b81019080803573ffffffffffffffffffffffffffffffffffffffff1690602001909291905050506111dc565b604051808215151515815260200191505060405180910390f35b3480156104d657600080fd5b50610503600480360360208110156104ed57600080fd5b81019080803590602001909291905050506111fc565b6040518082815260200191505060405180910390f35b34801561052557600080fd5b506105526004803603602081101561053c57600080fd5b810190808035906020019092919050505061121b565b005b34801561056057600080fd5b506105ad6004803603604081101561057757600080fd5b81019080803573ffffffffffffffffffffffffffffffffffffffff169060200190929190803590602001909291905050506113ef565b604051808215151515815260200191505060405180910390f35b3480156105d357600080fd5b506105dc61141e565b6040518082815260200191505060405180910390f35b3480156105fe57600080fd5b5061064b6004803603604081101561061557600080fd5b8101908080359060200190929190803573ffffffffffffffffffffffffffffffffffffffff169060200190929190505050611424565b005b34801561065957600080fd5b5061069c6004803603602081101561067057600080fd5b81019080803573ffffffffffffffffffffffffffffffffffffffff1690602001909291905050506114f5565b6040518082815260200191505060405180910390f35b3480156106be57600080fd5b506106c761150d565b6040518082815260200191505060405180910390f35b6106e5611513565b005b3480156106f357600080fd5b506106fc611634565b604051808273ffffffffffffffffffffffffffffffffffffffff1673ffffffffffffffffffffffffffffffffffffffff16815260200191505060405180910390f35b60011515600660003373ffffffffffffffffffffffffffffffffffffffff1673ffffffffffffffffffffffffffffffffffffffff16815260200190815260200160002060009054906101000a900460ff16151514610804576040517f08c379a000000000000000000000000000000000000000000000000000000000815260040180806020018281038252600e8152602001807f496e766573746f7273206f6e6c7900000000000000000000000000000000000081525060200191505060405180910390fd5b6000806000838152602001908152602001600020905060001515600260003373ffffffffffffffffffffffffffffffffffffffff1673ffffffffffffffffffffffffffffffffffffffff168152602001908152602001600020600084815260200190815260200160002060009054906101000a900460ff161515146108d4576040517f08c379a000000000000000000000000000000000000000000000000000000000815260040180806020018281038252602a81526020018061187e602a913960400191505060405180910390fd5b80600501544210610930576040517f08c379a00000000000000000000000000000000000000000000000000000000081526004018080602001828103825260218152602001806118256021913960400191505060405180910390fd5b6001600260003373ffffffffffffffffffffffffffffffffffffffff1673ffffffffffffffffffffffffffffffffffffffff168152602001908152602001600020600084815260200190815260200160002060006101000a81548160ff021916908315150217905550600760003373ffffffffffffffffffffffffffffffffffffffff1673ffffffffffffffffffffffffffffffffffffffff1681526020019081526020016000205481600401600082825401925050819055505050565b6000602052806000526040600020600091509050806000015490806001018054600181600116156101000203166002900480601f016020809104026020016040519081016040528092919081815260200182805460018160011615610100020316600290048015610aa05780601f10610a7557610100808354040283529160200191610aa0565b820191906000526020600020905b815481529060010190602001808311610a8357829003601f168201915b5050505050908060020154908060030160009054906101000a900473ffffffffffffffffffffffffffffffffffffffff16908060040154908060050154908060060160009054906101000a900460ff16905087565b81600760003373ffffffffffffffffffffffffffffffffffffffff1673ffffffffffffffffffffffffffffffffffffffff168152602001908152602001600020541015610baa576040517f08c379a00000000000000000000000000000000000000000000000000000000081526004018080602001828103825260118152602001807f4e6f7420656e6f7567682073686172657300000000000000000000000000000081525060200191505060405180910390fd5b81600760003373ffffffffffffffffffffffffffffffffffffffff1673ffffffffffffffffffffffffffffffffffffffff1681526020019081526020016000206000828254039250508190555081600760008373ffffffffffffffffffffffffffffffffffffffff1673ffffffffffffffffffffffffffffffffffffffff168152602001908152602001600020600082825401925050819055506001600660008373ffffffffffffffffffffffffffffffffffffffff1673ffffffffffffffffffffffffffffffffffffffff16815260200190815260200160002060006101000a81548160ff0219169083151502179055505050565b600560009054906101000a900473ffffffffffffffffffffffffffffffffffffffff1673ffffffffffffffffffffffffffffffffffffffff163373ffffffffffffffffffffffffffffffffffffffff1614610d63576040517f08c379a000000000000000000000000000000000000000000000000000000000815260040180806020018281038252600a8152602001807f41646d696e206f6e6c790000000000000000000000000000000000000000000081525060200191505060405180910390fd5b600080600083815260200190815260200160002090508060050154421015610dd6576040517f08c379a00000000000000000000000000000000000000000000000000000000081526004018080602001828103825260278152602001806117fe6027913960400191505060405180910390fd5b600015158160060160009054906101000a900460ff16151514610e44576040517f08c379a00000000000000000000000000000000000000000000000000000000081526004018080602001828103825260388152602001806118466038913960400191505060405180910390fd5b600454600854606483600401540281610e5957fe5b041015610eb1576040517f08c379a000000000000000000000000000000000000000000000000000000000815260040180806020018281038252602f8152602001806118a8602f913960400191505060405180910390fd5b60018160060160006101000a81548160ff021916908315150217905550610f0081600201548260030160009054906101000a900473ffffffffffffffffffffffffffffffffffffffff1661165a565b5050565b60045481565b60015481565b60085481565b60095481565b60011515600660003373ffffffffffffffffffffffffffffffffffffffff1673ffffffffffffffffffffffffffffffffffffffff16815260200190815260200160002060009054906101000a900460ff16151514610fe2576040517f08c379a000000000000000000000000000000000000000000000000000000000815260040180806020018281038252600e8152602001807f496e766573746f7273206f6e6c7900000000000000000000000000000000000081525060200191505060405180910390fd5b81600954101561105a576040517f08c379a000000000000000000000000000000000000000000000000000000000815260040180806020018281038252600e8152602001807f416d6f756e7420746f6f2062696700000000000000000000000000000000000081525060200191505060405180910390fd5b6040518060e00160405280600154815260200185858080601f016020809104026020016040519081016040528093929190818152602001838380828437600081840152601f19601f8201169050808301925050505050505081526020018381526020018273ffffffffffffffffffffffffffffffffffffffff168152602001600081526020016003544201815260200160001515815250600080600154815260200190815260200160002060008201518160000155602082015181600101908051906020019061112b92919061172d565b506040820151816002015560608201518160030160006101000a81548173ffffffffffffffffffffffffffffffffffffffff021916908373ffffffffffffffffffffffffffffffffffffffff1602179055506080820151816004015560a0820151816005015560c08201518160060160006101000a81548160ff0219169083151502179055509050508160096000828254039250508190555060016000815480929190600101919050555050505050565b60066020528060005260406000206000915054906101000a900460ff1681565b6000806000838152602001908152602001600020600001549050919050565b80600760003373ffffffffffffffffffffffffffffffffffffffff1673ffffffffffffffffffffffffffffffffffffffff1681526020019081526020016000205410156112d0576040517f08c379a00000000000000000000000000000000000000000000000000000000081526004018080602001828103825260118152602001807f4e6f7420656e6f7567682073686172657300000000000000000000000000000081525060200191505060405180910390fd5b806009541015611348576040517f08c379a000000000000000000000000000000000000000000000000000000000815260040180806020018281038252601a8152602001807f4e6f7420656e6f75676820617661696c61626c652066756e647300000000000081525060200191505060405180910390fd5b80600760003373ffffffffffffffffffffffffffffffffffffffff1673ffffffffffffffffffffffffffffffffffffffff16815260200190815260200160002060008282540392505081905550806009600082825403925050819055503373ffffffffffffffffffffffffffffffffffffffff166108fc829081150290604051600060405180830381858888f193505050501580156113eb573d6000803e3d6000fd5b5050565b60026020528160005260406000206020528060005260406000206000915091509054906101000a900460ff1681565b60035481565b600560009054906101000a900473ffffffffffffffffffffffffffffffffffffffff1673ffffffffffffffffffffffffffffffffffffffff163373ffffffffffffffffffffffffffffffffffffffff16146114e7576040517f08c379a000000000000000000000000000000000000000000000000000000000815260040180806020018281038252600a8152602001807f41646d696e206f6e6c790000000000000000000000000000000000000000000081525060200191505060405180910390fd5b6114f1828261165a565b5050565b60076020528060005260406000206000915090505481565b600a5481565b600a54421061156d576040517f08c379a000000000000000000000000000000000000000000000000000000000815260040180806020018281038252602b8152602001806117d3602b913960400191505060405180910390fd5b6001600660003373ffffffffffffffffffffffffffffffffffffffff1673ffffffffffffffffffffffffffffffffffffffff16815260200190815260200160002060006101000a81548160ff02191690831515021790555034600760003373ffffffffffffffffffffffffffffffffffffffff1673ffffffffffffffffffffffffffffffffffffffff168152602001908152602001600020600082825401925050819055503460086000828254019250508190555034600960008282540192505081905550565b600560009054906101000a900473ffffffffffffffffffffffffffffffffffffffff1681565b6009548211156116d2576040517f08c379a000000000000000000000000000000000000000000000000000000000815260040180806020018281038252601a8152602001807f4e6f7420656e6f75676820617661696c61626c652066756e647300000000000081525060200191505060405180910390fd5b816009600082825403925050819055508073ffffffffffffffffffffffffffffffffffffffff166108fc839081150290604051600060405180830381858888f19350505050158015611728573d6000803e3d6000fd5b505050565b828054600181600116156101000203166002900490600052602060002090601f016020900481019282601f1061176e57805160ff191683800117855561179c565b8280016001018555821561179c579182015b8281111561179b578251825591602001919060010190611780565b5b5090506117a991906117ad565b5090565b6117cf91905b808211156117cb5760008160009055506001016117b3565b5090565b9056fe43616e6e6f7420636f6e7472696275746520616674657220636f6e747269627574696f6e20706572696f6443616e6e6f7420657865637574652070726f706f73616c206265666f726520656e64206461746543616e206f6e6c7920766f746520756e74696c2070726f706f73616c20656e647343616e6e6f74206578656375746520612070726f706f73616c20746861742068617320616c7265616479206265656e206578656375746564496e766573746f722063616e206f6e6c7920766f7465206f6e636520666f7220612070726f706f73616c43616e6e6f7420657865637574652070726f706f73616c207769746820766f7465732062656c6f772071756f72756da265627a7a723158206d0bdca2b75d8fee58c29e333a173596775715755880e00047e3e123681e2b6b64736f6c63430005100032",
  "source": "pragma solidity ^0.5.2;\n\ncontract DAO {\n    struct Proposal {\n        uint256 id;\n        string name;\n        uint256 amount;\n        address payable recipient;\n        uint256 votes;\n        uint256 end;\n        bool executed;\n    }\n\n    mapping(uint256 => Proposal) public proposals;\n    uint256 public nextProposalId;\n    mapping(address => mapping(uint256 => bool)) public votes;\n    uint256 public voteTime;\n    uint256 public quorum;\n    address public admin;\n\n    // Verify the investor\n    mapping(address => bool) public investors;\n    // Keep track how much money is allocated to a specific investor\n    mapping(address => uint256) public shares;\n    uint256 public totalShares;\n    uint256 public availableFunds;\n    uint256 public contributionEnd;\n\n    constructor(\n        uint256 contributionTime,\n        uint256 _voteTime,\n        uint256 _quorum // percent\n    ) public {\n        require(\n            _quorum > 0 && _quorum < 100,\n            \"Quorum must be between 0 and 100\"\n        );\n        contributionEnd = now + contributionTime;\n        voteTime = _voteTime;\n        quorum = _quorum;\n        admin = msg.sender;\n    }\n\n    function getProposalId(uint256 id) external view returns (uint256) {\n        return proposals[id].id;\n    }\n\n    function contribute() external payable {\n        require(\n            now < contributionEnd,\n            \"Cannot contribute after contribution period\"\n        );\n        investors[msg.sender] = true;\n        shares[msg.sender] += msg.value;\n        totalShares += msg.value;\n        availableFunds += msg.value;\n    }\n\n    // For collecting funds from shares\n    function redeemShare(uint256 amount) external {\n        require(shares[msg.sender] >= amount, \"Not enough shares\");\n        require(availableFunds >= amount, \"Not enough available funds\");\n        shares[msg.sender] -= amount;\n        availableFunds -= amount;\n        msg.sender.transfer(amount);\n    }\n\n    // For selling shares to new investors\n    function transferShare(uint256 amount, address to) external {\n        require(shares[msg.sender] >= amount, \"Not enough shares\");\n        shares[msg.sender] -= amount;\n        shares[to] += amount;\n        investors[to] = true;\n    }\n\n    function createProposal(\n        string calldata name,\n        uint256 amount,\n        address payable recipient\n    ) external onlyInvestors {\n        require(availableFunds >= amount, \"Amount too big\");\n        proposals[nextProposalId] = Proposal(\n            nextProposalId,\n            name,\n            amount,\n            recipient,\n            0,\n            now + voteTime,\n            false\n        );\n        availableFunds -= amount;\n        nextProposalId++;\n    }\n\n    function vote(uint256 proposalId) external onlyInvestors {\n        // Point to the right proposal\n        Proposal storage proposal = proposals[proposalId];\n        // Make sure that investor has not voted before\n        require(\n            votes[msg.sender][proposalId] == false,\n            \"Investor can only vote once for a proposal\"\n        );\n        require(now < proposal.end, \"Can only vote until proposal ends\");\n        // Prevent double voting\n        votes[msg.sender][proposalId] = true;\n        // Increment the number of votes by the weight of the investor\n        proposal.votes += shares[msg.sender];\n    }\n\n    function executeProposal(uint256 proposalId) external onlyAdmin {\n        // Point to the right proposal\n        Proposal storage proposal = proposals[proposalId];\n        // Check that voting period has ended for proposal\n        require(now >= proposal.end, \"Cannot execute proposal before end date\");\n        // Make sure that the proposal has not been executed yet\n        require(\n            proposal.executed == false,\n            \"Cannot execute a proposal that has already been executed\"\n        );\n        // Make sure the proposal has enough votes\n        require(\n            ((proposal.votes * 100) / totalShares) >= quorum,\n            \"Cannot execute proposal with votes below quorum\"\n        );\n        proposal.executed = true;\n        _transferEther(proposal.amount, proposal.recipient);\n    }\n\n    // For emergencies\n    function withdrawEther(uint256 amount, address payable to)\n        external\n        onlyAdmin\n    {\n        _transferEther(amount, to);\n    }\n\n    // Fallback function\n    function() external payable {\n        availableFunds += msg.value;\n    }\n\n    function _transferEther(uint256 amount, address payable to) internal {\n        require(amount <= availableFunds, \"Not enough available funds\");\n        availableFunds -= amount;\n        to.transfer(amount);\n    }\n\n    modifier onlyInvestors() {\n        require(investors[msg.sender] == true, \"Investors only\");\n        _;\n    }\n\n    modifier onlyAdmin() {\n        require(msg.sender == admin, \"Admin only\");\n        _;\n    }\n}\n",
  "sourcePath": "/Users/heyyehudes/Documents/Dapp_30/dao/contracts/Dao.sol",
  "compiler": {
    "name": "solc",
    "version": "0.5.16+commit.9c3226ce.Emscripten.clang"
  },
  "schemaVersion": "3.3.1",
  "updatedAt": "2021-02-14T04:33:57.108Z",
  "networkType": "ethereum",
  "devdoc": {
    "methods": {}
  },
  "userdoc": {
    "methods": {}
  }
}