{
  "contractName": "DAO",
  "abi": [
    {
      "inputs": [
        {
          "internalType": "uint256",
          "name": "contributionTime",
          "type": "uint256"
        },
        {
          "internalType": "uint256",
          "name": "_voteTime",
          "type": "uint256"
        },
        {
          "internalType": "uint256",
          "name": "_quorum",
          "type": "uint256"
        }
      ],
      "payable": false,
      "stateMutability": "nonpayable",
      "type": "constructor"
    },
    {
      "payable": true,
      "stateMutability": "payable",
      "type": "fallback"
    },
    {
      "constant": true,
      "inputs": [],
      "name": "admin",
      "outputs": [
        {
          "internalType": "address",
          "name": "",
          "type": "address"
        }
      ],
      "payable": false,
      "stateMutability": "view",
      "type": "function"
    },
    {
      "constant": true,
      "inputs": [],
      "name": "availableFunds",
      "outputs": [
        {
          "internalType": "uint256",
          "name": "",
          "type": "uint256"
        }
      ],
      "payable": false,
      "stateMutability": "view",
      "type": "function"
    },
    {
      "constant": true,
      "inputs": [],
      "name": "contributionEnd",
      "outputs": [
        {
          "internalType": "uint256",
          "name": "",
          "type": "uint256"
        }
      ],
      "payable": false,
      "stateMutability": "view",
      "type": "function"
    },
    {
      "constant": true,
      "inputs": [
        {
          "internalType": "address",
          "name": "",
          "type": "address"
        }
      ],
      "name": "investors",
      "outputs": [
        {
          "internalType": "bool",
          "name": "",
          "type": "bool"
        }
      ],
      "payable": false,
      "stateMutability": "view",
      "type": "function"
    },
    {
      "constant": true,
      "inputs": [],
      "name": "nextProposalId",
      "outputs": [
        {
          "internalType": "uint256",
          "name": "",
          "type": "uint256"
        }
      ],
      "payable": false,
      "stateMutability": "view",
      "type": "function"
    },
    {
      "constant": true,
      "inputs": [
        {
          "internalType": "uint256",
          "name": "",
          "type": "uint256"
        }
      ],
      "name": "proposals",
      "outputs": [
        {
          "internalType": "uint256",
          "name": "id",
          "type": "uint256"
        },
        {
          "internalType": "string",
          "name": "name",
          "type": "string"
        },
        {
          "internalType": "uint256",
          "name": "amount",
          "type": "uint256"
        },
        {
          "internalType": "address payable",
          "name": "recipient",
          "type": "address"
        },
        {
          "internalType": "uint256",
          "name": "votes",
          "type": "uint256"
        },
        {
          "internalType": "uint256",
          "name": "end",
          "type": "uint256"
        },
        {
          "internalType": "bool",
          "name": "executed",
          "type": "bool"
        }
      ],
      "payable": false,
      "stateMutability": "view",
      "type": "function"
    },
    {
      "constant": true,
      "inputs": [],
      "name": "quorum",
      "outputs": [
        {
          "internalType": "uint256",
          "name": "",
          "type": "uint256"
        }
      ],
      "payable": false,
      "stateMutability": "view",
      "type": "function"
    },
    {
      "constant": true,
      "inputs": [
        {
          "internalType": "address",
          "name": "",
          "type": "address"
        }
      ],
      "name": "shares",
      "outputs": [
        {
          "internalType": "uint256",
          "name": "",
          "type": "uint256"
        }
      ],
      "payable": false,
      "stateMutability": "view",
      "type": "function"
    },
    {
      "constant": true,
      "inputs": [],
      "name": "totalShares",
      "outputs": [
        {
          "internalType": "uint256",
          "name": "",
          "type": "uint256"
        }
      ],
      "payable": false,
      "stateMutability": "view",
      "type": "function"
    },
    {
      "constant": true,
      "inputs": [],
      "name": "voteTime",
      "outputs": [
        {
          "internalType": "uint256",
          "name": "",
          "type": "uint256"
        }
      ],
      "payable": false,
      "stateMutability": "view",
      "type": "function"
    },
    {
      "constant": true,
      "inputs": [
        {
          "internalType": "address",
          "name": "",
          "type": "address"
        },
        {
          "internalType": "uint256",
          "name": "",
          "type": "uint256"
        }
      ],
      "name": "votes",
      "outputs": [
        {
          "internalType": "bool",
          "name": "",
          "type": "bool"
        }
      ],
      "payable": false,
      "stateMutability": "view",
      "type": "function"
    },
    {
      "constant": false,
      "inputs": [],
      "name": "contribute",
      "outputs": [],
      "payable": true,
      "stateMutability": "payable",
      "type": "function"
    },
    {
      "constant": false,
      "inputs": [
        {
          "internalType": "uint256",
          "name": "amount",
          "type": "uint256"
        }
      ],
      "name": "redeemShare",
      "outputs": [],
      "payable": false,
      "stateMutability": "nonpayable",
      "type": "function"
    },
    {
      "constant": false,
      "inputs": [
        {
          "internalType": "uint256",
          "name": "amount",
          "type": "uint256"
        },
        {
          "internalType": "address",
          "name": "to",
          "type": "address"
        }
      ],
      "name": "transferShare",
      "outputs": [],
      "payable": false,
      "stateMutability": "nonpayable",
      "type": "function"
    },
    {
      "constant": false,
      "inputs": [
        {
          "internalType": "string",
          "name": "name",
          "type": "string"
        },
        {
          "internalType": "uint256",
          "name": "amount",
          "type": "uint256"
        },
        {
          "internalType": "address payable",
          "name": "recipient",
          "type": "address"
        }
      ],
      "name": "createProposal",
      "outputs": [],
      "payable": false,
      "stateMutability": "nonpayable",
      "type": "function"
    },
    {
      "constant": false,
      "inputs": [
        {
          "internalType": "uint256",
          "name": "proposalId",
          "type": "uint256"
        }
      ],
      "name": "vote",
      "outputs": [],
      "payable": false,
      "stateMutability": "nonpayable",
      "type": "function"
    },
    {
      "constant": false,
      "inputs": [
        {
          "internalType": "uint256",
          "name": "proposalId",
          "type": "uint256"
        }
      ],
      "name": "executeProposal",
      "outputs": [],
      "payable": false,
      "stateMutability": "nonpayable",
      "type": "function"
    },
    {
      "constant": false,
      "inputs": [
        {
          "internalType": "uint256",
          "name": "amount",
          "type": "uint256"
        },
        {
          "internalType": "address payable",
          "name": "to",
          "type": "address"
        }
      ],
      "name": "withdrawEther",
      "outputs": [],
      "payable": false,
      "stateMutability": "nonpayable",
      "type": "function"
    }
  ],
  "bytecode": "0x608060405234801561001057600080fd5b506040516119b93803806119b98339818101604052606081101561003357600080fd5b810190808051906020019092919080519060200190929190805190602001909291905050506000811180156100685750606481105b6100da576040517f08c379a00000000000000000000000000000000000000000000000000000000081526004018080602001828103825260208152602001807f51756f72756d206d757374206265206265747765656e203020616e642031303081525060200191505060405180910390fd5b824201600a81905550816003819055508060048190555033600560006101000a81548173ffffffffffffffffffffffffffffffffffffffff021916908373ffffffffffffffffffffffffffffffffffffffff160217905550505050611875806101446000396000f3fe6080604052600436106101095760003560e01c80636f7bc9be11610095578063ce56c45411610064578063ce56c45414610598578063ce7c2ac2146105f3578063d151b51614610658578063d7bb99ba14610683578063f851a4401461068d57610109565b80636f7bc9be14610456578063868643df146104bf5780639f2524ee146104fa578063bcf93dd61461056d57610109565b80631703a018116100dc5780631703a018146102fa5780632ab09d14146103255780633a98ef391461035057806346fcff4c1461037b5780636ac1e01f146103a657610109565b80630121b93f1461011b578063013cf08b14610156578063039383e6146102645780630d61b519146102bf575b34600960008282540192505081905550005b34801561012757600080fd5b506101546004803603602081101561013e57600080fd5b81019080803590602001909291905050506106e4565b005b34801561016257600080fd5b5061018f6004803603602081101561017957600080fd5b8101908080359060200190929190505050610994565b60405180888152602001806020018781526020018673ffffffffffffffffffffffffffffffffffffffff1673ffffffffffffffffffffffffffffffffffffffff16815260200185815260200184815260200183151515158152602001828103825288818151815260200191508051906020019080838360005b83811015610223578082015181840152602081019050610208565b50505050905090810190601f1680156102505780820380516001836020036101000a031916815260200191505b509850505050505050505060405180910390f35b34801561027057600080fd5b506102bd6004803603604081101561028757600080fd5b8101908080359060200190929190803573ffffffffffffffffffffffffffffffffffffffff169060200190929190505050610a9b565b005b3480156102cb57600080fd5b506102f8600480360360208110156102e257600080fd5b8101908080359060200190929190505050610c46565b005b34801561030657600080fd5b5061030f610e8d565b6040518082815260200191505060405180910390f35b34801561033157600080fd5b5061033a610e93565b6040518082815260200191505060405180910390f35b34801561035c57600080fd5b50610365610e99565b6040518082815260200191505060405180910390f35b34801561038757600080fd5b50610390610e9f565b6040518082815260200191505060405180910390f35b3480156103b257600080fd5b50610454600480360360608110156103c957600080fd5b81019080803590602001906401000000008111156103e657600080fd5b8201836020820111156103f857600080fd5b8035906020019184600183028401116401000000008311171561041a57600080fd5b909192939192939080359060200190929190803573ffffffffffffffffffffffffffffffffffffffff169060200190929190505050610ea5565b005b34801561046257600080fd5b506104a56004803603602081101561047957600080fd5b81019080803573ffffffffffffffffffffffffffffffffffffffff169060200190929190505050611165565b604051808215151515815260200191505060405180910390f35b3480156104cb57600080fd5b506104f8600480360360208110156104e257600080fd5b8101908080359060200190929190505050611185565b005b34801561050657600080fd5b506105536004803603604081101561051d57600080fd5b81019080803573ffffffffffffffffffffffffffffffffffffffff16906020019092919080359060200190929190505050611359565b604051808215151515815260200191505060405180910390f35b34801561057957600080fd5b50610582611388565b6040518082815260200191505060405180910390f35b3480156105a457600080fd5b506105f1600480360360408110156105bb57600080fd5b8101908080359060200190929190803573ffffffffffffffffffffffffffffffffffffffff16906020019092919050505061138e565b005b3480156105ff57600080fd5b506106426004803603602081101561061657600080fd5b81019080803573ffffffffffffffffffffffffffffffffffffffff16906020019092919050505061145f565b6040518082815260200191505060405180910390f35b34801561066457600080fd5b5061066d611477565b6040518082815260200191505060405180910390f35b61068b61147d565b005b34801561069957600080fd5b506106a261159e565b604051808273ffffffffffffffffffffffffffffffffffffffff1673ffffffffffffffffffffffffffffffffffffffff16815260200191505060405180910390f35b60011515600660003373ffffffffffffffffffffffffffffffffffffffff1673ffffffffffffffffffffffffffffffffffffffff16815260200190815260200160002060009054906101000a900460ff161515146107aa576040517f08c379a000000000000000000000000000000000000000000000000000000000815260040180806020018281038252600e8152602001807f496e766573746f7273206f6e6c7900000000000000000000000000000000000081525060200191505060405180910390fd5b6000806000838152602001908152602001600020905060001515600260003373ffffffffffffffffffffffffffffffffffffffff1673ffffffffffffffffffffffffffffffffffffffff168152602001908152602001600020600084815260200190815260200160002060009054906101000a900460ff1615151461087a576040517f08c379a000000000000000000000000000000000000000000000000000000000815260040180806020018281038252602a8152602001806117e8602a913960400191505060405180910390fd5b806005015442106108d6576040517f08c379a000000000000000000000000000000000000000000000000000000000815260040180806020018281038252602181526020018061178f6021913960400191505060405180910390fd5b6001600260003373ffffffffffffffffffffffffffffffffffffffff1673ffffffffffffffffffffffffffffffffffffffff168152602001908152602001600020600084815260200190815260200160002060006101000a81548160ff021916908315150217905550600760003373ffffffffffffffffffffffffffffffffffffffff1673ffffffffffffffffffffffffffffffffffffffff1681526020019081526020016000205481600401600082825401925050819055505050565b6000602052806000526040600020600091509050806000015490806001018054600181600116156101000203166002900480601f016020809104026020016040519081016040528092919081815260200182805460018160011615610100020316600290048015610a465780601f10610a1b57610100808354040283529160200191610a46565b820191906000526020600020905b815481529060010190602001808311610a2957829003601f168201915b5050505050908060020154908060030160009054906101000a900473ffffffffffffffffffffffffffffffffffffffff16908060040154908060050154908060060160009054906101000a900460ff16905087565b81600760003373ffffffffffffffffffffffffffffffffffffffff1673ffffffffffffffffffffffffffffffffffffffff168152602001908152602001600020541015610b50576040517f08c379a00000000000000000000000000000000000000000000000000000000081526004018080602001828103825260118152602001807f4e6f7420656e6f7567682073686172657300000000000000000000000000000081525060200191505060405180910390fd5b81600760003373ffffffffffffffffffffffffffffffffffffffff1673ffffffffffffffffffffffffffffffffffffffff1681526020019081526020016000206000828254039250508190555081600760008373ffffffffffffffffffffffffffffffffffffffff1673ffffffffffffffffffffffffffffffffffffffff168152602001908152602001600020600082825401925050819055506001600660008373ffffffffffffffffffffffffffffffffffffffff1673ffffffffffffffffffffffffffffffffffffffff16815260200190815260200160002060006101000a81548160ff0219169083151502179055505050565b600560009054906101000a900473ffffffffffffffffffffffffffffffffffffffff1673ffffffffffffffffffffffffffffffffffffffff163373ffffffffffffffffffffffffffffffffffffffff1614610d09576040517f08c379a000000000000000000000000000000000000000000000000000000000815260040180806020018281038252600a8152602001807f41646d696e206f6e6c790000000000000000000000000000000000000000000081525060200191505060405180910390fd5b600080600083815260200190815260200160002090508060050154421015610d7c576040517f08c379a00000000000000000000000000000000000000000000000000000000081526004018080602001828103825260278152602001806117686027913960400191505060405180910390fd5b600015158160060160009054906101000a900460ff16151514610dea576040517f08c379a00000000000000000000000000000000000000000000000000000000081526004018080602001828103825260388152602001806117b06038913960400191505060405180910390fd5b600454600854606483600401540281610dff57fe5b041015610e57576040517f08c379a000000000000000000000000000000000000000000000000000000000815260040180806020018281038252602f815260200180611812602f913960400191505060405180910390fd5b610e8981600201548260030160009054906101000a900473ffffffffffffffffffffffffffffffffffffffff166115c4565b5050565b60045481565b60015481565b60085481565b60095481565b60011515600660003373ffffffffffffffffffffffffffffffffffffffff1673ffffffffffffffffffffffffffffffffffffffff16815260200190815260200160002060009054906101000a900460ff16151514610f6b576040517f08c379a000000000000000000000000000000000000000000000000000000000815260040180806020018281038252600e8152602001807f496e766573746f7273206f6e6c7900000000000000000000000000000000000081525060200191505060405180910390fd5b816009541015610fe3576040517f08c379a000000000000000000000000000000000000000000000000000000000815260040180806020018281038252600e8152602001807f416d6f756e7420746f6f2062696700000000000000000000000000000000000081525060200191505060405180910390fd5b6040518060e00160405280600154815260200185858080601f016020809104026020016040519081016040528093929190818152602001838380828437600081840152601f19601f8201169050808301925050505050505081526020018381526020018273ffffffffffffffffffffffffffffffffffffffff16815260200160008152602001600354420181526020016000151581525060008060015481526020019081526020016000206000820151816000015560208201518160010190805190602001906110b4929190611697565b506040820151816002015560608201518160030160006101000a81548173ffffffffffffffffffffffffffffffffffffffff021916908373ffffffffffffffffffffffffffffffffffffffff1602179055506080820151816004015560a0820151816005015560c08201518160060160006101000a81548160ff0219169083151502179055509050508160096000828254039250508190555060016000815480929190600101919050555050505050565b60066020528060005260406000206000915054906101000a900460ff1681565b80600760003373ffffffffffffffffffffffffffffffffffffffff1673ffffffffffffffffffffffffffffffffffffffff16815260200190815260200160002054101561123a576040517f08c379a00000000000000000000000000000000000000000000000000000000081526004018080602001828103825260118152602001807f4e6f7420656e6f7567682073686172657300000000000000000000000000000081525060200191505060405180910390fd5b8060095410156112b2576040517f08c379a000000000000000000000000000000000000000000000000000000000815260040180806020018281038252601a8152602001807f4e6f7420656e6f75676820617661696c61626c652066756e647300000000000081525060200191505060405180910390fd5b80600760003373ffffffffffffffffffffffffffffffffffffffff1673ffffffffffffffffffffffffffffffffffffffff16815260200190815260200160002060008282540392505081905550806009600082825403925050819055503373ffffffffffffffffffffffffffffffffffffffff166108fc829081150290604051600060405180830381858888f19350505050158015611355573d6000803e3d6000fd5b5050565b60026020528160005260406000206020528060005260406000206000915091509054906101000a900460ff1681565b60035481565b600560009054906101000a900473ffffffffffffffffffffffffffffffffffffffff1673ffffffffffffffffffffffffffffffffffffffff163373ffffffffffffffffffffffffffffffffffffffff1614611451576040517f08c379a000000000000000000000000000000000000000000000000000000000815260040180806020018281038252600a8152602001807f41646d696e206f6e6c790000000000000000000000000000000000000000000081525060200191505060405180910390fd5b61145b82826115c4565b5050565b60076020528060005260406000206000915090505481565b600a5481565b600a5442106114d7576040517f08c379a000000000000000000000000000000000000000000000000000000000815260040180806020018281038252602b81526020018061173d602b913960400191505060405180910390fd5b6001600660003373ffffffffffffffffffffffffffffffffffffffff1673ffffffffffffffffffffffffffffffffffffffff16815260200190815260200160002060006101000a81548160ff02191690831515021790555034600760003373ffffffffffffffffffffffffffffffffffffffff1673ffffffffffffffffffffffffffffffffffffffff168152602001908152602001600020600082825401925050819055503460086000828254019250508190555034600960008282540192505081905550565b600560009054906101000a900473ffffffffffffffffffffffffffffffffffffffff1681565b60095482111561163c576040517f08c379a000000000000000000000000000000000000000000000000000000000815260040180806020018281038252601a8152602001807f4e6f7420656e6f75676820617661696c61626c652066756e647300000000000081525060200191505060405180910390fd5b816009600082825403925050819055508073ffffffffffffffffffffffffffffffffffffffff166108fc839081150290604051600060405180830381858888f19350505050158015611692573d6000803e3d6000fd5b505050565b828054600181600116156101000203166002900490600052602060002090601f016020900481019282601f106116d857805160ff1916838001178555611706565b82800160010185558215611706579182015b828111156117055782518255916020019190600101906116ea565b5b5090506117139190611717565b5090565b61173991905b8082111561173557600081600090555060010161171d565b5090565b9056fe43616e6e6f7420636f6e7472696275746520616674657220636f6e747269627574696f6e20706572696f6443616e6e6f7420657865637574652070726f706f73616c206265666f726520656e64206461746543616e206f6e6c7920766f746520756e74696c2070726f706f73616c20656e647343616e6e6f74206578656375746520612070726f706f73616c20746861742068617320616c7265616479206265656e206578656375746564496e766573746f722063616e206f6e6c7920766f7465206f6e636520666f7220612070726f706f73616c43616e6e6f7420657865637574652070726f706f73616c207769746820766f7465732062656c6f772071756f72756da265627a7a72315820e7ba5d568bde65d88fa7bf840e1a27553c53943c1bbb0e76df2587f62278f13164736f6c63430005100032",
  "source": "pragma solidity ^0.5.2;\n\ncontract DAO {\n    struct Proposal {\n        uint256 id;\n        string name;\n        uint256 amount;\n        address payable recipient;\n        uint256 votes;\n        uint256 end;\n        bool executed;\n    }\n\n    mapping(uint256 => Proposal) public proposals;\n    uint256 public nextProposalId;\n    mapping(address => mapping(uint256 => bool)) public votes;\n    uint256 public voteTime;\n    uint256 public quorum;\n    address public admin;\n\n    // Verify the investor\n    mapping(address => bool) public investors;\n    // Keep track how much money is allocated to a specific investor\n    mapping(address => uint256) public shares;\n    uint256 public totalShares;\n    uint256 public availableFunds;\n    uint256 public contributionEnd;\n\n    constructor(\n        uint256 contributionTime,\n        uint256 _voteTime,\n        uint256 _quorum // percent\n    ) public {\n        require(\n            _quorum > 0 && _quorum < 100,\n            \"Quorum must be between 0 and 100\"\n        );\n        contributionEnd = now + contributionTime;\n        voteTime = _voteTime;\n        quorum = _quorum;\n        admin = msg.sender;\n    }\n\n    function contribute() external payable {\n        require(\n            now < contributionEnd,\n            \"Cannot contribute after contribution period\"\n        );\n        investors[msg.sender] = true;\n        shares[msg.sender] += msg.value;\n        totalShares += msg.value;\n        availableFunds += msg.value;\n    }\n\n    // For collecting funds from shares\n    function redeemShare(uint256 amount) external {\n        require(shares[msg.sender] >= amount, \"Not enough shares\");\n        require(availableFunds >= amount, \"Not enough available funds\");\n        shares[msg.sender] -= amount;\n        availableFunds -= amount;\n        msg.sender.transfer(amount);\n    }\n\n    // For selling shares to new investors\n    function transferShare(uint256 amount, address to) external {\n        require(shares[msg.sender] >= amount, \"Not enough shares\");\n        shares[msg.sender] -= amount;\n        shares[to] += amount;\n        investors[to] = true;\n    }\n\n    function createProposal(\n        string calldata name,\n        uint256 amount,\n        address payable recipient\n    ) external onlyInvestors {\n        require(availableFunds >= amount, \"Amount too big\");\n        proposals[nextProposalId] = Proposal(\n            nextProposalId,\n            name,\n            amount,\n            recipient,\n            0,\n            now + voteTime,\n            false\n        );\n        availableFunds -= amount;\n        nextProposalId++;\n    }\n\n    function vote(uint256 proposalId) external onlyInvestors {\n        // Point to the right proposal\n        Proposal storage proposal = proposals[proposalId];\n        // Make sure that investor has not voted before\n        require(\n            votes[msg.sender][proposalId] == false,\n            \"Investor can only vote once for a proposal\"\n        );\n        require(now < proposal.end, \"Can only vote until proposal ends\");\n        // Prevent double voting\n        votes[msg.sender][proposalId] = true;\n        // Increment the number of votes by the weight of the investor\n        proposal.votes += shares[msg.sender];\n    }\n\n    function executeProposal(uint256 proposalId) external onlyAdmin {\n        // Point to the right proposal\n        Proposal storage proposal = proposals[proposalId];\n        // Check that voting period has ended for proposal\n        require(now >= proposal.end, \"Cannot execute proposal before end date\");\n        // Make sure that the proposal has not been executed yet\n        require(\n            proposal.executed == false,\n            \"Cannot execute a proposal that has already been executed\"\n        );\n        // Make sure the proposal has enough votes\n        require(\n            ((proposal.votes * 100) / totalShares) >= quorum,\n            \"Cannot execute proposal with votes below quorum\"\n        );\n        _transferEther(proposal.amount, proposal.recipient);\n    }\n\n    // For emergencies\n    function withdrawEther(uint256 amount, address payable to)\n        external\n        onlyAdmin\n    {\n        _transferEther(amount, to);\n    }\n\n    // Fallback function\n    function() external payable {\n        availableFunds += msg.value;\n    }\n\n    function _transferEther(uint256 amount, address payable to) internal {\n        require(amount <= availableFunds, \"Not enough available funds\");\n        availableFunds -= amount;\n        to.transfer(amount);\n    }\n\n    modifier onlyInvestors() {\n        require(investors[msg.sender] == true, \"Investors only\");\n        _;\n    }\n\n    modifier onlyAdmin() {\n        require(msg.sender == admin, \"Admin only\");\n        _;\n    }\n}\n",
  "sourcePath": "/Users/heyyehudes/Documents/Dapp_30/dao/contracts/Dao.sol",
  "compiler": {
    "name": "solc",
    "version": "0.5.16+commit.9c3226ce.Emscripten.clang"
  },
  "schemaVersion": "3.3.1",
  "updatedAt": "2021-02-13T04:37:36.287Z",
  "networkType": "ethereum",
  "devdoc": {
    "methods": {}
  },
  "userdoc": {
    "methods": {}
  }
}